{
  "_format": "hh-sol-artifact-1",
  "contractName": "MyEpicNFT",
  "sourceName": "contracts/MyEpicNFT.sol",
  "abi": [
    {
      "inputs": [],
      "stateMutability": "nonpayable",
      "type": "constructor"
    },
    {
      "anonymous": false,
      "inputs": [
        {
          "indexed": true,
          "internalType": "address",
          "name": "owner",
          "type": "address"
        },
        {
          "indexed": true,
          "internalType": "address",
          "name": "approved",
          "type": "address"
        },
        {
          "indexed": true,
          "internalType": "uint256",
          "name": "tokenId",
          "type": "uint256"
        }
      ],
      "name": "Approval",
      "type": "event"
    },
    {
      "anonymous": false,
      "inputs": [
        {
          "indexed": true,
          "internalType": "address",
          "name": "owner",
          "type": "address"
        },
        {
          "indexed": true,
          "internalType": "address",
          "name": "operator",
          "type": "address"
        },
        {
          "indexed": false,
          "internalType": "bool",
          "name": "approved",
          "type": "bool"
        }
      ],
      "name": "ApprovalForAll",
      "type": "event"
    },
    {
      "anonymous": false,
      "inputs": [
        {
          "indexed": false,
          "internalType": "address",
          "name": "sender",
          "type": "address"
        },
        {
          "indexed": false,
          "internalType": "uint256",
          "name": "tokenId",
          "type": "uint256"
        }
      ],
      "name": "NewEpicNFTMinted",
      "type": "event"
    },
    {
      "anonymous": false,
      "inputs": [
        {
          "indexed": true,
          "internalType": "address",
          "name": "from",
          "type": "address"
        },
        {
          "indexed": true,
          "internalType": "address",
          "name": "to",
          "type": "address"
        },
        {
          "indexed": true,
          "internalType": "uint256",
          "name": "tokenId",
          "type": "uint256"
        }
      ],
      "name": "Transfer",
      "type": "event"
    },
    {
      "inputs": [
        {
          "internalType": "address",
          "name": "to",
          "type": "address"
        },
        {
          "internalType": "uint256",
          "name": "tokenId",
          "type": "uint256"
        }
      ],
      "name": "approve",
      "outputs": [],
      "stateMutability": "nonpayable",
      "type": "function"
    },
    {
      "inputs": [
        {
          "internalType": "address",
          "name": "owner",
          "type": "address"
        }
      ],
      "name": "balanceOf",
      "outputs": [
        {
          "internalType": "uint256",
          "name": "",
          "type": "uint256"
        }
      ],
      "stateMutability": "view",
      "type": "function"
    },
    {
      "inputs": [
        {
          "internalType": "uint256",
          "name": "tokenId",
          "type": "uint256"
        }
      ],
      "name": "getApproved",
      "outputs": [
        {
          "internalType": "address",
          "name": "",
          "type": "address"
        }
      ],
      "stateMutability": "view",
      "type": "function"
    },
    {
      "inputs": [
        {
          "internalType": "address",
          "name": "owner",
          "type": "address"
        },
        {
          "internalType": "address",
          "name": "operator",
          "type": "address"
        }
      ],
      "name": "isApprovedForAll",
      "outputs": [
        {
          "internalType": "bool",
          "name": "",
          "type": "bool"
        }
      ],
      "stateMutability": "view",
      "type": "function"
    },
    {
      "inputs": [],
      "name": "makeAnEpicNFT",
      "outputs": [],
      "stateMutability": "nonpayable",
      "type": "function"
    },
    {
      "inputs": [],
      "name": "name",
      "outputs": [
        {
          "internalType": "string",
          "name": "",
          "type": "string"
        }
      ],
      "stateMutability": "view",
      "type": "function"
    },
    {
      "inputs": [
        {
          "internalType": "uint256",
          "name": "tokenId",
          "type": "uint256"
        }
      ],
      "name": "ownerOf",
      "outputs": [
        {
          "internalType": "address",
          "name": "",
          "type": "address"
        }
      ],
      "stateMutability": "view",
      "type": "function"
    },
    {
      "inputs": [
        {
          "internalType": "uint256",
          "name": "tokenId",
          "type": "uint256"
        }
      ],
      "name": "pickRandomFirstWord",
      "outputs": [
        {
          "internalType": "string",
          "name": "",
          "type": "string"
        }
      ],
      "stateMutability": "view",
      "type": "function"
    },
    {
      "inputs": [
        {
          "internalType": "uint256",
          "name": "tokenId",
          "type": "uint256"
        }
      ],
      "name": "pickRandomSecondWord",
      "outputs": [
        {
          "internalType": "string",
          "name": "",
          "type": "string"
        }
      ],
      "stateMutability": "view",
      "type": "function"
    },
    {
      "inputs": [
        {
          "internalType": "uint256",
          "name": "tokenId",
          "type": "uint256"
        }
      ],
      "name": "pickRandomThirdWord",
      "outputs": [
        {
          "internalType": "string",
          "name": "",
          "type": "string"
        }
      ],
      "stateMutability": "view",
      "type": "function"
    },
    {
      "inputs": [
        {
          "internalType": "address",
          "name": "from",
          "type": "address"
        },
        {
          "internalType": "address",
          "name": "to",
          "type": "address"
        },
        {
          "internalType": "uint256",
          "name": "tokenId",
          "type": "uint256"
        }
      ],
      "name": "safeTransferFrom",
      "outputs": [],
      "stateMutability": "nonpayable",
      "type": "function"
    },
    {
      "inputs": [
        {
          "internalType": "address",
          "name": "from",
          "type": "address"
        },
        {
          "internalType": "address",
          "name": "to",
          "type": "address"
        },
        {
          "internalType": "uint256",
          "name": "tokenId",
          "type": "uint256"
        },
        {
          "internalType": "bytes",
          "name": "_data",
          "type": "bytes"
        }
      ],
      "name": "safeTransferFrom",
      "outputs": [],
      "stateMutability": "nonpayable",
      "type": "function"
    },
    {
      "inputs": [
        {
          "internalType": "address",
          "name": "operator",
          "type": "address"
        },
        {
          "internalType": "bool",
          "name": "approved",
          "type": "bool"
        }
      ],
      "name": "setApprovalForAll",
      "outputs": [],
      "stateMutability": "nonpayable",
      "type": "function"
    },
    {
      "inputs": [
        {
          "internalType": "bytes4",
          "name": "interfaceId",
          "type": "bytes4"
        }
      ],
      "name": "supportsInterface",
      "outputs": [
        {
          "internalType": "bool",
          "name": "",
          "type": "bool"
        }
      ],
      "stateMutability": "view",
      "type": "function"
    },
    {
      "inputs": [],
      "name": "symbol",
      "outputs": [
        {
          "internalType": "string",
          "name": "",
          "type": "string"
        }
      ],
      "stateMutability": "view",
      "type": "function"
    },
    {
      "inputs": [
        {
          "internalType": "uint256",
          "name": "tokenId",
          "type": "uint256"
        }
      ],
      "name": "tokenURI",
      "outputs": [
        {
          "internalType": "string",
          "name": "",
          "type": "string"
        }
      ],
      "stateMutability": "view",
      "type": "function"
    },
    {
      "inputs": [
        {
          "internalType": "address",
          "name": "from",
          "type": "address"
        },
        {
          "internalType": "address",
          "name": "to",
          "type": "address"
        },
        {
          "internalType": "uint256",
          "name": "tokenId",
          "type": "uint256"
        }
      ],
      "name": "transferFrom",
      "outputs": [],
      "stateMutability": "nonpayable",
      "type": "function"
    }
  ],
  "bytecode": "0x608060405260405180610160016040528061012f81526020016200427961012f913960089080519060200190620000389291906200067e565b506040518060c001604052806040518060400160405280600581526020017f537765657400000000000000000000000000000000000000000000000000000081525081526020016040518060400160405280600681526020017f43727970746f000000000000000000000000000000000000000000000000000081525081526020016040518060400160405280600481526020017f576861740000000000000000000000000000000000000000000000000000000081525081526020016040518060400160405280600381526020017f43616e000000000000000000000000000000000000000000000000000000000081525081526020016040518060400160405280600681526020017f546f6d61746f000000000000000000000000000000000000000000000000000081525081526020016040518060400160405280600681526020017f4c6f76656c7900000000000000000000000000000000000000000000000000008152508152506009906006620001b69291906200070f565b506040518060c001604052806040518060400160405280600681526020017f526169646572000000000000000000000000000000000000000000000000000081525081526020016040518060400160405280600481526020017f426162790000000000000000000000000000000000000000000000000000000081525081526020016040518060400160405280600481526020017f556265720000000000000000000000000000000000000000000000000000000081525081526020016040518060400160405280600581526020017f4d6f6e657900000000000000000000000000000000000000000000000000000081525081526020016040518060400160405280600481526020017f4c6f76650000000000000000000000000000000000000000000000000000000081525081526020016040518060400160405280600581526020017f436f756e74000000000000000000000000000000000000000000000000000000815250815250600a906006620003349291906200070f565b506040518060c001604052806040518060400160405280600c81526020017f547562657263756c6f736973000000000000000000000000000000000000000081525081526020016040518060400160405280600481526020017f456174730000000000000000000000000000000000000000000000000000000081525081526020016040518060400160405280600981526020017f4361726e6174696f6e000000000000000000000000000000000000000000000081525081526020016040518060400160405280600581526020017f4a6f6e657300000000000000000000000000000000000000000000000000000081525081526020016040518060400160405280600581526020017f4a6573757300000000000000000000000000000000000000000000000000000081525081526020016040518060400160405280600481526020017f4c6f726400000000000000000000000000000000000000000000000000000000815250815250600b906006620004b29291906200070f565b50348015620004c057600080fd5b506040518060400160405280600981526020017f5371756172654e465400000000000000000000000000000000000000000000008152506040518060400160405280600681526020017f53515541524500000000000000000000000000000000000000000000000000008152508160009080519060200190620005459291906200067e565b5080600190805190602001906200055e9291906200067e565b505050620005ac6040518060400160405280601e81526020017f54686973206973206d79204e465420636f6e74726163742e20576f6168210000815250620005b260201b620012ae1760201c565b62000930565b6200065281604051602401620005c9919062000844565b6040516020818303038152906040527f41304fac000000000000000000000000000000000000000000000000000000007bffffffffffffffffffffffffffffffffffffffffffffffffffffffff19166020820180517bffffffffffffffffffffffffffffffffffffffffffffffffffffffff83818316178352505050506200065560201b60201c565b50565b60008151905060006a636f6e736f6c652e6c6f679050602083016000808483855afa5050505050565b8280546200068c90620008ba565b90600052602060002090601f016020900481019282620006b05760008555620006fc565b82601f10620006cb57805160ff1916838001178555620006fc565b82800160010185558215620006fc579182015b82811115620006fb578251825591602001919060010190620006de565b5b5090506200070b919062000776565b5090565b82805482825590600052602060002090810192821562000763579160200282015b8281111562000762578251829080519060200190620007519291906200067e565b509160200191906001019062000730565b5b50905062000772919062000795565b5090565b5b808211156200079157600081600090555060010162000777565b5090565b5b80821115620007b95760008181620007af9190620007bd565b5060010162000796565b5090565b508054620007cb90620008ba565b6000825580601f10620007df575062000800565b601f016020900490600052602060002090810190620007ff919062000776565b5b50565b6000620008108262000868565b6200081c818562000873565b93506200082e81856020860162000884565b62000839816200091f565b840191505092915050565b6000602082019050818103600083015262000860818462000803565b905092915050565b600081519050919050565b600082825260208201905092915050565b60005b83811015620008a457808201518184015260208101905062000887565b83811115620008b4576000848401525b50505050565b60006002820490506001821680620008d357607f821691505b60208210811415620008ea57620008e9620008f0565b5b50919050565b7f4e487b7100000000000000000000000000000000000000000000000000000000600052602260045260246000fd5b6000601f19601f8301169050919050565b61393980620009406000396000f3fe608060405234801561001057600080fd5b506004361061010b5760003560e01c806370a08231116100a2578063b88d4fde11610071578063b88d4fde146102dc578063c575757a146102f8578063c87b56dd14610328578063de9d132f14610358578063e985e9c5146103625761010b565b806370a082311461024257806395d89b4114610272578063a22cb46514610290578063b187301f146102ac5761010b565b806323b872dd116100de57806323b872dd146101aa5780632de38d68146101c657806342842e0e146101f65780636352211e146102125761010b565b806301ffc9a71461011057806306fdde0314610140578063081812fc1461015e578063095ea7b31461018e575b600080fd5b61012a60048036038101906101259190612541565b610392565b60405161013791906131af565b60405180910390f35b610148610474565b60405161015591906131ca565b60405180910390f35b61017860048036038101906101739190612593565b610506565b604051610185919061311f565b60405180910390f35b6101a860048036038101906101a39190612505565b61058b565b005b6101c460048036038101906101bf91906123ff565b6106a3565b005b6101e060048036038101906101db9190612593565b610703565b6040516101ed91906131ca565b60405180910390f35b610210600480360381019061020b91906123ff565b610821565b005b61022c60048036038101906102279190612593565b610841565b604051610239919061311f565b60405180910390f35b61025c6004803603810190610257919061239a565b6108f3565b604051610269919061342a565b60405180910390f35b61027a6109ab565b60405161028791906131ca565b60405180910390f35b6102aa60048036038101906102a591906124c9565b610a3d565b005b6102c660048036038101906102c19190612593565b610bbe565b6040516102d391906131ca565b60405180910390f35b6102f660048036038101906102f1919061244e565b610cdc565b005b610312600480360381019061030d9190612593565b610d3e565b60405161031f91906131ca565b60405180910390f35b610342600480360381019061033d9190612593565b610e5c565b60405161034f91906131ca565b60405180910390f35b610360610fae565b005b61037c600480360381019061037791906123c3565b61121a565b60405161038991906131af565b60405180910390f35b60007f80ac58cd000000000000000000000000000000000000000000000000000000007bffffffffffffffffffffffffffffffffffffffffffffffffffffffff1916827bffffffffffffffffffffffffffffffffffffffffffffffffffffffff1916148061045d57507f5b5e139f000000000000000000000000000000000000000000000000000000007bffffffffffffffffffffffffffffffffffffffffffffffffffffffff1916827bffffffffffffffffffffffffffffffffffffffffffffffffffffffff1916145b8061046d575061046c82611347565b5b9050919050565b606060008054610483906136c9565b80601f01602080910402602001604051908101604052809291908181526020018280546104af906136c9565b80156104fc5780601f106104d1576101008083540402835291602001916104fc565b820191906000526020600020905b8154815290600101906020018083116104df57829003601f168201915b5050505050905090565b6000610511826113b1565b610550576040517f08c379a00000000000000000000000000000000000000000000000000000000081526004016105479061338a565b60405180910390fd5b6004600083815260200190815260200160002060009054906101000a900473ffffffffffffffffffffffffffffffffffffffff169050919050565b600061059682610841565b90508073ffffffffffffffffffffffffffffffffffffffff168373ffffffffffffffffffffffffffffffffffffffff161415610607576040517f08c379a00000000000000000000000000000000000000000000000000000000081526004016105fe906133ea565b60405180910390fd5b8073ffffffffffffffffffffffffffffffffffffffff1661062661141d565b73ffffffffffffffffffffffffffffffffffffffff16148061065557506106548161064f61141d565b61121a565b5b610694576040517f08c379a000000000000000000000000000000000000000000000000000000000815260040161068b906132ca565b60405180910390fd5b61069e8383611425565b505050565b6106b46106ae61141d565b826114de565b6106f3576040517f08c379a00000000000000000000000000000000000000000000000000000000081526004016106ea9061340a565b60405180910390fd5b6106fe8383836115bc565b505050565b6060600061073761071384611818565b60405160200161072391906130db565b6040516020818303038152906040526119c5565b90506009805490508161074a9190613744565b905060098181548110610786577f4e487b7100000000000000000000000000000000000000000000000000000000600052603260045260246000fd5b90600052602060002001805461079b906136c9565b80601f01602080910402602001604051908101604052809291908181526020018280546107c7906136c9565b80156108145780601f106107e957610100808354040283529160200191610814565b820191906000526020600020905b8154815290600101906020018083116107f757829003601f168201915b5050505050915050919050565b61083c83838360405180602001604052806000815250610cdc565b505050565b6000806002600084815260200190815260200160002060009054906101000a900473ffffffffffffffffffffffffffffffffffffffff169050600073ffffffffffffffffffffffffffffffffffffffff168173ffffffffffffffffffffffffffffffffffffffff1614156108ea576040517f08c379a00000000000000000000000000000000000000000000000000000000081526004016108e19061330a565b60405180910390fd5b80915050919050565b60008073ffffffffffffffffffffffffffffffffffffffff168273ffffffffffffffffffffffffffffffffffffffff161415610964576040517f08c379a000000000000000000000000000000000000000000000000000000000815260040161095b906132ea565b60405180910390fd5b600360008373ffffffffffffffffffffffffffffffffffffffff1673ffffffffffffffffffffffffffffffffffffffff168152602001908152602001600020549050919050565b6060600180546109ba906136c9565b80601f01602080910402602001604051908101604052809291908181526020018280546109e6906136c9565b8015610a335780601f10610a0857610100808354040283529160200191610a33565b820191906000526020600020905b815481529060010190602001808311610a1657829003601f168201915b5050505050905090565b610a4561141d565b73ffffffffffffffffffffffffffffffffffffffff168273ffffffffffffffffffffffffffffffffffffffff161415610ab3576040517f08c379a0000000000000000000000000000000000000000000000000000000008152600401610aaa9061328a565b60405180910390fd5b8060056000610ac061141d565b73ffffffffffffffffffffffffffffffffffffffff1673ffffffffffffffffffffffffffffffffffffffff16815260200190815260200160002060008473ffffffffffffffffffffffffffffffffffffffff1673ffffffffffffffffffffffffffffffffffffffff16815260200190815260200160002060006101000a81548160ff0219169083151502179055508173ffffffffffffffffffffffffffffffffffffffff16610b6d61141d565b73ffffffffffffffffffffffffffffffffffffffff167f17307eab39ab6107e8899845ad3d59bd9653f200f220920489ca2b5937696c3183604051610bb291906131af565b60405180910390a35050565b60606000610bf2610bce84611818565b604051602001610bde9190613074565b6040516020818303038152906040526119c5565b9050600a8054905081610c059190613744565b9050600a8181548110610c41577f4e487b7100000000000000000000000000000000000000000000000000000000600052603260045260246000fd5b906000526020600020018054610c56906136c9565b80601f0160208091040260200160405190810160405280929190818152602001828054610c82906136c9565b8015610ccf5780601f10610ca457610100808354040283529160200191610ccf565b820191906000526020600020905b815481529060010190602001808311610cb257829003601f168201915b5050505050915050919050565b610ced610ce761141d565b836114de565b610d2c576040517f08c379a0000000000000000000000000000000000000000000000000000000008152600401610d239061340a565b60405180910390fd5b610d38848484846119f8565b50505050565b60606000610d72610d4e84611818565b604051602001610d5e9190613052565b6040516020818303038152906040526119c5565b9050600b8054905081610d859190613744565b9050600b8181548110610dc1577f4e487b7100000000000000000000000000000000000000000000000000000000600052603260045260246000fd5b906000526020600020018054610dd6906136c9565b80601f0160208091040260200160405190810160405280929190818152602001828054610e02906136c9565b8015610e4f5780601f10610e2457610100808354040283529160200191610e4f565b820191906000526020600020905b815481529060010190602001808311610e3257829003601f168201915b5050505050915050919050565b6060610e67826113b1565b610ea6576040517f08c379a0000000000000000000000000000000000000000000000000000000008152600401610e9d9061336a565b60405180910390fd5b6000600660008481526020019081526020016000208054610ec6906136c9565b80601f0160208091040260200160405190810160405280929190818152602001828054610ef2906136c9565b8015610f3f5780601f10610f1457610100808354040283529160200191610f3f565b820191906000526020600020905b815481529060010190602001808311610f2257829003601f168201915b505050505090506000610f50611a54565b9050600081511415610f66578192505050610fa9565b600082511115610f9b578082604051602001610f83929190612fce565b60405160208183030381529060405292505050610fa9565b610fa484611a6b565b925050505b919050565b6000610fba6007611b12565b90506000610fc782610703565b90506000610fd483610bbe565b90506000610fe184610d3e565b90506000838383604051602001610ffa93929190612ff2565b60405160208183030381529060405290506000600882604051602001611021929190613023565b60405160208183030381529060405290506110706040518060400160405280601581526020017f0a2d2d2d2d2d2d2d2d2d2d2d2d2d2d2d2d2d2d2d2d00000000000000000000008152506112ae565b611079816112ae565b6110b76040518060400160405280601581526020017f2d2d2d2d2d2d2d2d2d2d2d2d2d2d2d2d2d2d2d2d0a00000000000000000000008152506112ae565b60006110eb836110c684611b20565b6040516020016110d7929190613096565b604051602081830303815290604052611b20565b905060008160405160200161110091906130fd565b604051602081830303815290604052905061114f6040518060400160405280601581526020017f0a2d2d2d2d2d2d2d2d2d2d2d2d2d2d2d2d2d2d2d2d00000000000000000000008152506112ae565b611158816112ae565b6111966040518060400160405280601581526020017f2d2d2d2d2d2d2d2d2d2d2d2d2d2d2d2d2d2d2d2d0a00000000000000000000008152506112ae565b6111a03389611cde565b6111aa8882611cfc565b6111cd60405180606001604052806025815260200161389f602591398933611d70565b6111d76007611e0f565b7febb98688741ffa4c7589bf325de30cf7becb63de567842e1ccdb6cb949fdc82c3389604051611208929190613186565b60405180910390a15050505050505050565b6000600560008473ffffffffffffffffffffffffffffffffffffffff1673ffffffffffffffffffffffffffffffffffffffff16815260200190815260200160002060008373ffffffffffffffffffffffffffffffffffffffff1673ffffffffffffffffffffffffffffffffffffffff16815260200190815260200160002060009054906101000a900460ff16905092915050565b611344816040516024016112c291906131ca565b6040516020818303038152906040527f41304fac000000000000000000000000000000000000000000000000000000007bffffffffffffffffffffffffffffffffffffffffffffffffffffffff19166020820180517bffffffffffffffffffffffffffffffffffffffffffffffffffffffff8381831617835250505050611e25565b50565b60007f01ffc9a7000000000000000000000000000000000000000000000000000000007bffffffffffffffffffffffffffffffffffffffffffffffffffffffff1916827bffffffffffffffffffffffffffffffffffffffffffffffffffffffff1916149050919050565b60008073ffffffffffffffffffffffffffffffffffffffff166002600084815260200190815260200160002060009054906101000a900473ffffffffffffffffffffffffffffffffffffffff1673ffffffffffffffffffffffffffffffffffffffff1614159050919050565b600033905090565b816004600083815260200190815260200160002060006101000a81548173ffffffffffffffffffffffffffffffffffffffff021916908373ffffffffffffffffffffffffffffffffffffffff160217905550808273ffffffffffffffffffffffffffffffffffffffff1661149883610841565b73ffffffffffffffffffffffffffffffffffffffff167f8c5be1e5ebec7d5bd14f71427d1e84f3dd0314c0f7b2291e5b200ac8c7c3b92560405160405180910390a45050565b60006114e9826113b1565b611528576040517f08c379a000000000000000000000000000000000000000000000000000000000815260040161151f906132aa565b60405180910390fd5b600061153383610841565b90508073ffffffffffffffffffffffffffffffffffffffff168473ffffffffffffffffffffffffffffffffffffffff1614806115a257508373ffffffffffffffffffffffffffffffffffffffff1661158a84610506565b73ffffffffffffffffffffffffffffffffffffffff16145b806115b357506115b2818561121a565b5b91505092915050565b8273ffffffffffffffffffffffffffffffffffffffff166115dc82610841565b73ffffffffffffffffffffffffffffffffffffffff1614611632576040517f08c379a0000000000000000000000000000000000000000000000000000000008152600401611629906133aa565b60405180910390fd5b600073ffffffffffffffffffffffffffffffffffffffff168273ffffffffffffffffffffffffffffffffffffffff1614156116a2576040517f08c379a00000000000000000000000000000000000000000000000000000000081526004016116999061326a565b60405180910390fd5b6116ad838383611e4e565b6116b8600082611425565b6001600360008573ffffffffffffffffffffffffffffffffffffffff1673ffffffffffffffffffffffffffffffffffffffff168152602001908152602001600020600082825461170891906135df565b925050819055506001600360008473ffffffffffffffffffffffffffffffffffffffff1673ffffffffffffffffffffffffffffffffffffffff168152602001908152602001600020600082825461175f91906134fe565b92505081905550816002600083815260200190815260200160002060006101000a81548173ffffffffffffffffffffffffffffffffffffffff021916908373ffffffffffffffffffffffffffffffffffffffff160217905550808273ffffffffffffffffffffffffffffffffffffffff168473ffffffffffffffffffffffffffffffffffffffff167fddf252ad1be2c89b69c2b068fc378daa952ba7f163c4a11628f55a4df523b3ef60405160405180910390a4505050565b60606000821415611860576040518060400160405280600181526020017f300000000000000000000000000000000000000000000000000000000000000081525090506119c0565b600082905060005b6000821461189257808061187b906136fb565b915050600a8261188b9190613554565b9150611868565b60008167ffffffffffffffff8111156118d4577f4e487b7100000000000000000000000000000000000000000000000000000000600052604160045260246000fd5b6040519080825280601f01601f1916602001820160405280156119065781602001600182028036833780820191505090505b5090505b600085146119b95760018261191f91906135df565b9150600a8561192e9190613744565b603061193a91906134fe565b60f81b818381518110611976577f4e487b7100000000000000000000000000000000000000000000000000000000600052603260045260246000fd5b60200101907effffffffffffffffffffffffffffffffffffffffffffffffffffffffffffff1916908160001a905350600a856119b29190613554565b945061190a565b8093505050505b919050565b6000816040516020016119d89190612fb7565b6040516020818303038152906040528051906020012060001c9050919050565b611a038484846115bc565b611a0f84848484611e53565b611a4e576040517f08c379a0000000000000000000000000000000000000000000000000000000008152600401611a459061322a565b60405180910390fd5b50505050565b606060405180602001604052806000815250905090565b6060611a76826113b1565b611ab5576040517f08c379a0000000000000000000000000000000000000000000000000000000008152600401611aac906133ca565b60405180910390fd5b6000611abf611a54565b90506000815111611adf5760405180602001604052806000815250611b0a565b80611ae984611818565b604051602001611afa929190612fce565b6040516020818303038152906040525b915050919050565b600081600001549050919050565b60606000825190506000811415611b495760405180602001604052806000815250915050611cd9565b60006003600283611b5a91906134fe565b611b649190613554565b6004611b709190613585565b90506000602082611b8191906134fe565b67ffffffffffffffff811115611bc0577f4e487b7100000000000000000000000000000000000000000000000000000000600052604160045260246000fd5b6040519080825280601f01601f191660200182016040528015611bf25781602001600182028036833780820191505090505b50905060006040518060600160405280604081526020016138c4604091399050600181016020830160005b86811015611c965760038101905062ffffff818a015116603f8160121c168401518060081b905060ff603f83600c1c1686015116810190508060081b905060ff603f8360061c1686015116810190508060081b905060ff603f831686015116810190508060e01b90508084526004840193505050611c1d565b506003860660018114611cb05760028114611cc057611ccb565b613d3d60f01b6002830352611ccb565b603d60f81b60018303525b508484525050819450505050505b919050565b611cf8828260405180602001604052806000815250611fea565b5050565b611d05826113b1565b611d44576040517f08c379a0000000000000000000000000000000000000000000000000000000008152600401611d3b9061332a565b60405180910390fd5b80600660008481526020019081526020016000209080519060200190611d6b929190612226565b505050565b611e0a838383604051602401611d88939291906131ec565b6040516020818303038152906040527fe3849f79000000000000000000000000000000000000000000000000000000007bffffffffffffffffffffffffffffffffffffffffffffffffffffffff19166020820180517bffffffffffffffffffffffffffffffffffffffffffffffffffffffff8381831617835250505050611e25565b505050565b6001816000016000828254019250508190555050565b60008151905060006a636f6e736f6c652e6c6f679050602083016000808483855afa5050505050565b505050565b6000611e748473ffffffffffffffffffffffffffffffffffffffff16612045565b15611fdd578373ffffffffffffffffffffffffffffffffffffffff1663150b7a02611e9d61141d565b8786866040518563ffffffff1660e01b8152600401611ebf949392919061313a565b602060405180830381600087803b158015611ed957600080fd5b505af1925050508015611f0a57506040513d601f19601f82011682018060405250810190611f07919061256a565b60015b611f8d573d8060008114611f3a576040519150601f19603f3d011682016040523d82523d6000602084013e611f3f565b606091505b50600081511415611f85576040517f08c379a0000000000000000000000000000000000000000000000000000000008152600401611f7c9061322a565b60405180910390fd5b805181602001fd5b63150b7a0260e01b7bffffffffffffffffffffffffffffffffffffffffffffffffffffffff1916817bffffffffffffffffffffffffffffffffffffffffffffffffffffffff191614915050611fe2565b600190505b949350505050565b611ff48383612058565b6120016000848484611e53565b612040576040517f08c379a00000000000000000000000000000000000000000000000000000000081526004016120379061322a565b60405180910390fd5b505050565b600080823b905060008111915050919050565b600073ffffffffffffffffffffffffffffffffffffffff168273ffffffffffffffffffffffffffffffffffffffff1614156120c8576040517f08c379a00000000000000000000000000000000000000000000000000000000081526004016120bf9061334a565b60405180910390fd5b6120d1816113b1565b15612111576040517f08c379a00000000000000000000000000000000000000000000000000000000081526004016121089061324a565b60405180910390fd5b61211d60008383611e4e565b6001600360008473ffffffffffffffffffffffffffffffffffffffff1673ffffffffffffffffffffffffffffffffffffffff168152602001908152602001600020600082825461216d91906134fe565b92505081905550816002600083815260200190815260200160002060006101000a81548173ffffffffffffffffffffffffffffffffffffffff021916908373ffffffffffffffffffffffffffffffffffffffff160217905550808273ffffffffffffffffffffffffffffffffffffffff16600073ffffffffffffffffffffffffffffffffffffffff167fddf252ad1be2c89b69c2b068fc378daa952ba7f163c4a11628f55a4df523b3ef60405160405180910390a45050565b828054612232906136c9565b90600052602060002090601f016020900481019282612254576000855561229b565b82601f1061226d57805160ff191683800117855561229b565b8280016001018555821561229b579182015b8281111561229a57825182559160200191906001019061227f565b5b5090506122a891906122ac565b5090565b5b808211156122c55760008160009055506001016122ad565b5090565b60006122dc6122d784613476565b613445565b9050828152602081018484840111156122f457600080fd5b6122ff848285613687565b509392505050565b60008135905061231681613842565b92915050565b60008135905061232b81613859565b92915050565b60008135905061234081613870565b92915050565b60008151905061235581613870565b92915050565b600082601f83011261236c57600080fd5b813561237c8482602086016122c9565b91505092915050565b60008135905061239481613887565b92915050565b6000602082840312156123ac57600080fd5b60006123ba84828501612307565b91505092915050565b600080604083850312156123d657600080fd5b60006123e485828601612307565b92505060206123f585828601612307565b9150509250929050565b60008060006060848603121561241457600080fd5b600061242286828701612307565b935050602061243386828701612307565b925050604061244486828701612385565b9150509250925092565b6000806000806080858703121561246457600080fd5b600061247287828801612307565b945050602061248387828801612307565b935050604061249487828801612385565b925050606085013567ffffffffffffffff8111156124b157600080fd5b6124bd8782880161235b565b91505092959194509250565b600080604083850312156124dc57600080fd5b60006124ea85828601612307565b92505060206124fb8582860161231c565b9150509250929050565b6000806040838503121561251857600080fd5b600061252685828601612307565b925050602061253785828601612385565b9150509250929050565b60006020828403121561255357600080fd5b600061256184828501612331565b91505092915050565b60006020828403121561257c57600080fd5b600061258a84828501612346565b91505092915050565b6000602082840312156125a557600080fd5b60006125b384828501612385565b91505092915050565b6125c581613613565b82525050565b6125d481613625565b82525050565b60006125e5826134bb565b6125ef81856134d1565b93506125ff818560208601613696565b61260881613831565b840191505092915050565b600061261e826134c6565b61262881856134e2565b9350612638818560208601613696565b61264181613831565b840191505092915050565b6000612657826134c6565b61266181856134f3565b9350612671818560208601613696565b80840191505092915050565b6000815461268a816136c9565b61269481866134f3565b945060018216600081146126af57600181146126c0576126f3565b60ff198316865281860193506126f3565b6126c9856134a6565b60005b838110156126eb578154818901526001820191506020810190506126cc565b838801955050505b50505092915050565b60006127096032836134e2565b91507f4552433732313a207472616e7366657220746f206e6f6e20455243373231526560008301527f63656976657220696d706c656d656e74657200000000000000000000000000006020830152604082019050919050565b600061276f601c836134e2565b91507f4552433732313a20746f6b656e20616c7265616479206d696e746564000000006000830152602082019050919050565b60006127af600a836134f3565b91507f54484952445f574f5244000000000000000000000000000000000000000000006000830152600a82019050919050565b60006127ef6024836134e2565b91507f4552433732313a207472616e7366657220746f20746865207a65726f2061646460008301527f72657373000000000000000000000000000000000000000000000000000000006020830152604082019050919050565b60006128556019836134e2565b91507f4552433732313a20617070726f766520746f2063616c6c6572000000000000006000830152602082019050919050565b6000612895600b836134f3565b91507f5345434f4e445f574f52440000000000000000000000000000000000000000006000830152600b82019050919050565b60006128d5602c836134e2565b91507f4552433732313a206f70657261746f7220717565727920666f72206e6f6e657860008301527f697374656e7420746f6b656e00000000000000000000000000000000000000006020830152604082019050919050565b600061293b600d836134f3565b91507f3c2f746578743e3c2f7376673e000000000000000000000000000000000000006000830152600d82019050919050565b600061297b6038836134e2565b91507f4552433732313a20617070726f76652063616c6c6572206973206e6f74206f7760008301527f6e6572206e6f7220617070726f76656420666f7220616c6c00000000000000006020830152604082019050919050565b60006129e1602a836134e2565b91507f4552433732313a2062616c616e636520717565727920666f7220746865207a6560008301527f726f2061646472657373000000000000000000000000000000000000000000006020830152604082019050919050565b6000612a476029836134e2565b91507f4552433732313a206f776e657220717565727920666f72206e6f6e657869737460008301527f656e7420746f6b656e00000000000000000000000000000000000000000000006020830152604082019050919050565b6000612aad602e836134e2565b91507f45524337323155524953746f726167653a2055524920736574206f66206e6f6e60008301527f6578697374656e7420746f6b656e0000000000000000000000000000000000006020830152604082019050919050565b6000612b136002836134f3565b91507f227d0000000000000000000000000000000000000000000000000000000000006000830152600282019050919050565b6000612b5360ae836134f3565b91507f222c20226465736372697074696f6e223a202241206d6574617665727365206260008301527f6f726e652066726f6d2074686520706173742c2070726573656e742c20616e6460208301527f206675747572652e222c202261747472696275746573223a205b207b2022747260408301527f6169745f74797065223a2022526172697479222c202276616c7565223a20224560608301527f70696322207d205d2c2022696d616765223a2022646174613a696d6167652f7360808301527f76672b786d6c3b6261736536342c00000000000000000000000000000000000060a083015260ae82019050919050565b6000612c516020836134e2565b91507f4552433732313a206d696e7420746f20746865207a65726f20616464726573736000830152602082019050919050565b6000612c916031836134e2565b91507f45524337323155524953746f726167653a2055524920717565727920666f722060008301527f6e6f6e6578697374656e7420746f6b656e0000000000000000000000000000006020830152604082019050919050565b6000612cf7602c836134e2565b91507f4552433732313a20617070726f76656420717565727920666f72206e6f6e657860008301527f697374656e7420746f6b656e00000000000000000000000000000000000000006020830152604082019050919050565b6000612d5d6029836134e2565b91507f4552433732313a207472616e73666572206f6620746f6b656e2074686174206960008301527f73206e6f74206f776e00000000000000000000000000000000000000000000006020830152604082019050919050565b6000612dc3602f836134e2565b91507f4552433732314d657461646174613a2055524920717565727920666f72206e6f60008301527f6e6578697374656e7420746f6b656e00000000000000000000000000000000006020830152604082019050919050565b6000612e29600a836134f3565b91507f7b226e616d65223a2022000000000000000000000000000000000000000000006000830152600a82019050919050565b6000612e696021836134e2565b91507f4552433732313a20617070726f76616c20746f2063757272656e74206f776e6560008301527f72000000000000000000000000000000000000000000000000000000000000006020830152604082019050919050565b6000612ecf600a836134f3565b91507f46495253545f574f5244000000000000000000000000000000000000000000006000830152600a82019050919050565b6000612f0f601d836134f3565b91507f646174613a6170706c69636174696f6e2f6a736f6e3b6261736536342c0000006000830152601d82019050919050565b6000612f4f6031836134e2565b91507f4552433732313a207472616e736665722063616c6c6572206973206e6f74206f60008301527f776e6572206e6f7220617070726f7665640000000000000000000000000000006020830152604082019050919050565b612fb18161367d565b82525050565b6000612fc3828461264c565b915081905092915050565b6000612fda828561264c565b9150612fe6828461264c565b91508190509392505050565b6000612ffe828661264c565b915061300a828561264c565b9150613016828461264c565b9150819050949350505050565b600061302f828561267d565b915061303b828461264c565b91506130468261292e565b91508190509392505050565b600061305d826127a2565b9150613069828461264c565b915081905092915050565b600061307f82612888565b915061308b828461264c565b915081905092915050565b60006130a182612e1c565b91506130ad828561264c565b91506130b882612b46565b91506130c4828461264c565b91506130cf82612b06565b91508190509392505050565b60006130e682612ec2565b91506130f2828461264c565b915081905092915050565b600061310882612f02565b9150613114828461264c565b915081905092915050565b600060208201905061313460008301846125bc565b92915050565b600060808201905061314f60008301876125bc565b61315c60208301866125bc565b6131696040830185612fa8565b818103606083015261317b81846125da565b905095945050505050565b600060408201905061319b60008301856125bc565b6131a86020830184612fa8565b9392505050565b60006020820190506131c460008301846125cb565b92915050565b600060208201905081810360008301526131e48184612613565b905092915050565b600060608201905081810360008301526132068186612613565b90506132156020830185612fa8565b61322260408301846125bc565b949350505050565b60006020820190508181036000830152613243816126fc565b9050919050565b6000602082019050818103600083015261326381612762565b9050919050565b60006020820190508181036000830152613283816127e2565b9050919050565b600060208201905081810360008301526132a381612848565b9050919050565b600060208201905081810360008301526132c3816128c8565b9050919050565b600060208201905081810360008301526132e38161296e565b9050919050565b60006020820190508181036000830152613303816129d4565b9050919050565b6000602082019050818103600083015261332381612a3a565b9050919050565b6000602082019050818103600083015261334381612aa0565b9050919050565b6000602082019050818103600083015261336381612c44565b9050919050565b6000602082019050818103600083015261338381612c84565b9050919050565b600060208201905081810360008301526133a381612cea565b9050919050565b600060208201905081810360008301526133c381612d50565b9050919050565b600060208201905081810360008301526133e381612db6565b9050919050565b6000602082019050818103600083015261340381612e5c565b9050919050565b6000602082019050818103600083015261342381612f42565b9050919050565b600060208201905061343f6000830184612fa8565b92915050565b6000604051905081810181811067ffffffffffffffff8211171561346c5761346b613802565b5b8060405250919050565b600067ffffffffffffffff82111561349157613490613802565b5b601f19601f8301169050602081019050919050565b60008190508160005260206000209050919050565b600081519050919050565b600081519050919050565b600082825260208201905092915050565b600082825260208201905092915050565b600081905092915050565b60006135098261367d565b91506135148361367d565b9250827fffffffffffffffffffffffffffffffffffffffffffffffffffffffffffffffff0382111561354957613548613775565b5b828201905092915050565b600061355f8261367d565b915061356a8361367d565b92508261357a576135796137a4565b5b828204905092915050565b60006135908261367d565b915061359b8361367d565b9250817fffffffffffffffffffffffffffffffffffffffffffffffffffffffffffffffff04831182151516156135d4576135d3613775565b5b828202905092915050565b60006135ea8261367d565b91506135f58361367d565b92508282101561360857613607613775565b5b828203905092915050565b600061361e8261365d565b9050919050565b60008115159050919050565b60007fffffffff0000000000000000000000000000000000000000000000000000000082169050919050565b600073ffffffffffffffffffffffffffffffffffffffff82169050919050565b6000819050919050565b82818337600083830152505050565b60005b838110156136b4578082015181840152602081019050613699565b838111156136c3576000848401525b50505050565b600060028204905060018216806136e157607f821691505b602082108114156136f5576136f46137d3565b5b50919050565b60006137068261367d565b91507fffffffffffffffffffffffffffffffffffffffffffffffffffffffffffffffff82141561373957613738613775565b5b600182019050919050565b600061374f8261367d565b915061375a8361367d565b92508261376a576137696137a4565b5b828206905092915050565b7f4e487b7100000000000000000000000000000000000000000000000000000000600052601160045260246000fd5b7f4e487b7100000000000000000000000000000000000000000000000000000000600052601260045260246000fd5b7f4e487b7100000000000000000000000000000000000000000000000000000000600052602260045260246000fd5b7f4e487b7100000000000000000000000000000000000000000000000000000000600052604160045260246000fd5b6000601f19601f8301169050919050565b61384b81613613565b811461385657600080fd5b50565b61386281613625565b811461386d57600080fd5b50565b61387981613631565b811461388457600080fd5b50565b6138908161367d565b811461389b57600080fd5b5056fe416e204e465420772f20494420257320686173206265656e206d696e74656420746f2025734142434445464748494a4b4c4d4e4f505152535455565758595a6162636465666768696a6b6c6d6e6f707172737475767778797a303132333435363738392b2fa2646970667358221220c8a4bc044261e2d0d732b98641606577134c7e5411e3e19a5a5406332861205f64736f6c634300080000333c73766720786d6c6e733d27687474703a2f2f7777772e77332e6f72672f323030302f73766727207072657365727665417370656374526174696f3d27784d696e594d696e206d656574272076696577426f783d273020302033353020333530273e3c7374796c653e2e62617365207b2066696c6c3a2077686974653b20666f6e742d66616d696c793a2073657269663b20666f6e742d73697a653a20323470783b207d3c2f7374796c653e3c726563742077696474683d273130302527206865696768743d2731303025272066696c6c3d27626c61636b27202f3e3c7465787420783d273530252720793d273530252720636c6173733d27626173652720646f6d696e616e742d626173656c696e653d276d6964646c652720746578742d616e63686f723d276d6964646c65273e",
  "linkReferences": {},
  "deployedLinkReferences": {}
}